{
  "_format": "hh-sol-artifact-1",
  "contractName": "Todo",
  "sourceName": "contracts/Todo.sol",
  "abi": [
    {
      "inputs": [],
      "stateMutability": "nonpayable",
      "type": "constructor"
    },
    {
      "inputs": [],
      "name": "allTask",
      "outputs": [
        {
          "components": [
            {
              "internalType": "uint256",
              "name": "id",
              "type": "uint256"
            },
            {
              "internalType": "string",
              "name": "name",
              "type": "string"
            },
            {
              "internalType": "string",
              "name": "date",
              "type": "string"
            }
          ],
          "internalType": "struct Todo.Task[]",
          "name": "",
          "type": "tuple[]"
        }
      ],
      "stateMutability": "view",
      "type": "function"
    },
    {
      "inputs": [
        {
          "internalType": "string",
          "name": "_taskname",
          "type": "string"
        },
        {
          "internalType": "string",
          "name": "_date",
          "type": "string"
        }
      ],
      "name": "createTask",
      "outputs": [],
      "stateMutability": "nonpayable",
      "type": "function"
    },
    {
      "inputs": [
        {
          "internalType": "uint256",
          "name": "_taskId",
          "type": "uint256"
        }
      ],
      "name": "deleteTask",
      "outputs": [],
      "stateMutability": "nonpayable",
      "type": "function"
    },
    {
      "inputs": [
        {
          "internalType": "uint256",
          "name": "_taskId",
          "type": "uint256"
        },
        {
          "internalType": "string",
          "name": "_taskName",
          "type": "string"
        },
        {
          "internalType": "string",
          "name": "_date",
          "type": "string"
        }
      ],
      "name": "updateTask",
      "outputs": [],
      "stateMutability": "nonpayable",
      "type": "function"
    },
    {
      "inputs": [
        {
          "internalType": "uint256",
          "name": "_taskId",
          "type": "uint256"
        }
      ],
      "name": "viewTask",
      "outputs": [
        {
          "components": [
            {
              "internalType": "uint256",
              "name": "id",
              "type": "uint256"
            },
            {
              "internalType": "string",
              "name": "name",
              "type": "string"
            },
            {
              "internalType": "string",
              "name": "date",
              "type": "string"
            }
          ],
          "internalType": "struct Todo.Task",
          "name": "",
          "type": "tuple"
        }
      ],
      "stateMutability": "view",
      "type": "function"
    }
  ],
  "bytecode": "0x6080604052600160055534801561001557600080fd5b50336000806101000a81548173ffffffffffffffffffffffffffffffffffffffff021916908373ffffffffffffffffffffffffffffffffffffffff1602179055506110da806100656000396000f3fe608060405234801561001057600080fd5b50600436106100575760003560e01c8063292a45851461005c5780633b3d7e5614610078578063560f3192146100a8578063997c21a5146100c4578063c72ef41f146100e2575b600080fd5b61007660048036038101906100719190610840565b6100fe565b005b610092600480360381019061008d91906108f7565b61020f565b60405161009f9190610a1a565b60405180910390f35b6100c260048036038101906100bd91906108f7565b6103bd565b005b6100cc610451565b6040516100d99190610b55565b60405180910390f35b6100fc60048036038101906100f79190610b77565b61065d565b005b6040518060600160405280600554815260200185858080601f016020809104026020016040519081016040528093929190818152602001838380828437600081840152601f19601f82011690508083019250505050505050815260200183838080601f016020809104026020016040519081016040528093929190818152602001838380828437600081840152601f19601f820116905080830192505050505050508152506004600060055481526020019081526020016000206000820151816000015560208201518160010190816101d79190610e47565b5060408201518160020190816101ed9190610e47565b509050506005600081548092919061020490610f48565b919050555050505050565b610217610753565b816000811415801561022a575060055481105b610269576040517f08c379a000000000000000000000000000000000000000000000000000000000815260040161026090610fed565b60405180910390fd5b60046000848152602001908152602001600020604051806060016040529081600082015481526020016001820180546102a190610c6a565b80601f01602080910402602001604051908101604052809291908181526020018280546102cd90610c6a565b801561031a5780601f106102ef5761010080835404028352916020019161031a565b820191906000526020600020905b8154815290600101906020018083116102fd57829003601f168201915b5050505050815260200160028201805461033390610c6a565b80601f016020809104026020016040519081016040528092919081815260200182805461035f90610c6a565b80156103ac5780601f10610381576101008083540402835291602001916103ac565b820191906000526020600020905b81548152906001019060200180831161038f57829003601f168201915b505050505081525050915050919050565b80600081141580156103d0575060055481105b61040f576040517f08c379a000000000000000000000000000000000000000000000000000000000815260040161040690610fed565b60405180910390fd5b6004600083815260200190815260200160002060008082016000905560018201600061043b9190610774565b60028201600061044b9190610774565b50505050565b606060006001600554610464919061100d565b67ffffffffffffffff81111561047d5761047c610c0c565b5b6040519080825280602002602001820160405280156104b657816020015b6104a3610753565b81526020019060019003908161049b5790505b50905060005b60016005546104cb919061100d565b81101561065557600460006001836104e39190611041565b81526020019081526020016000206040518060600160405290816000820154815260200160018201805461051690610c6a565b80601f016020809104026020016040519081016040528092919081815260200182805461054290610c6a565b801561058f5780601f106105645761010080835404028352916020019161058f565b820191906000526020600020905b81548152906001019060200180831161057257829003601f168201915b505050505081526020016002820180546105a890610c6a565b80601f01602080910402602001604051908101604052809291908181526020018280546105d490610c6a565b80156106215780601f106105f657610100808354040283529160200191610621565b820191906000526020600020905b81548152906001019060200180831161060457829003601f168201915b50505050508152505082828151811061063d5761063c611075565b5b602002602001018190525080806001019150506104bc565b508091505090565b604051806060016040528086815260200185858080601f016020809104026020016040519081016040528093929190818152602001838380828437600081840152601f19601f82011690508083019250505050505050815260200183838080601f016020809104026020016040519081016040528093929190818152602001838380828437600081840152601f19601f82011690508083019250505050505050815250600460008781526020019081526020016000206000820151816000015560208201518160010190816107329190610e47565b5060408201518160020190816107489190610e47565b509050505050505050565b60405180606001604052806000815260200160608152602001606081525090565b50805461078090610c6a565b6000825580601f1061079257506107b1565b601f0160209004906000526020600020908101906107b091906107b4565b5b50565b5b808211156107cd5760008160009055506001016107b5565b5090565b600080fd5b600080fd5b600080fd5b600080fd5b600080fd5b60008083601f840112610800576107ff6107db565b5b8235905067ffffffffffffffff81111561081d5761081c6107e0565b5b602083019150836001820283011115610839576108386107e5565b5b9250929050565b6000806000806040858703121561085a576108596107d1565b5b600085013567ffffffffffffffff811115610878576108776107d6565b5b610884878288016107ea565b9450945050602085013567ffffffffffffffff8111156108a7576108a66107d6565b5b6108b3878288016107ea565b925092505092959194509250565b6000819050919050565b6108d4816108c1565b81146108df57600080fd5b50565b6000813590506108f1816108cb565b92915050565b60006020828403121561090d5761090c6107d1565b5b600061091b848285016108e2565b91505092915050565b61092d816108c1565b82525050565b600081519050919050565b600082825260208201905092915050565b60005b8381101561096d578082015181840152602081019050610952565b60008484015250505050565b6000601f19601f8301169050919050565b600061099582610933565b61099f818561093e565b93506109af81856020860161094f565b6109b881610979565b840191505092915050565b60006060830160008301516109db6000860182610924565b50602083015184820360208601526109f3828261098a565b91505060408301518482036040860152610a0d828261098a565b9150508091505092915050565b60006020820190508181036000830152610a3481846109c3565b905092915050565b600081519050919050565b600082825260208201905092915050565b6000819050602082019050919050565b6000606083016000830151610a806000860182610924565b5060208301518482036020860152610a98828261098a565b91505060408301518482036040860152610ab2828261098a565b9150508091505092915050565b6000610acb8383610a68565b905092915050565b6000602082019050919050565b6000610aeb82610a3c565b610af58185610a47565b935083602082028501610b0785610a58565b8060005b85811015610b435784840389528151610b248582610abf565b9450610b2f83610ad3565b925060208a01995050600181019050610b0b565b50829750879550505050505092915050565b60006020820190508181036000830152610b6f8184610ae0565b905092915050565b600080600080600060608688031215610b9357610b926107d1565b5b6000610ba1888289016108e2565b955050602086013567ffffffffffffffff811115610bc257610bc16107d6565b5b610bce888289016107ea565b9450945050604086013567ffffffffffffffff811115610bf157610bf06107d6565b5b610bfd888289016107ea565b92509250509295509295909350565b7f4e487b7100000000000000000000000000000000000000000000000000000000600052604160045260246000fd5b7f4e487b7100000000000000000000000000000000000000000000000000000000600052602260045260246000fd5b60006002820490506001821680610c8257607f821691505b602082108103610c9557610c94610c3b565b5b50919050565b60008190508160005260206000209050919050565b60006020601f8301049050919050565b600082821b905092915050565b600060088302610cfd7fffffffffffffffffffffffffffffffffffffffffffffffffffffffffffffffff82610cc0565b610d078683610cc0565b95508019841693508086168417925050509392505050565b6000819050919050565b6000610d44610d3f610d3a846108c1565b610d1f565b6108c1565b9050919050565b6000819050919050565b610d5e83610d29565b610d72610d6a82610d4b565b848454610ccd565b825550505050565b600090565b610d87610d7a565b610d92818484610d55565b505050565b5b81811015610db657610dab600082610d7f565b600181019050610d98565b5050565b601f821115610dfb57610dcc81610c9b565b610dd584610cb0565b81016020851015610de4578190505b610df8610df085610cb0565b830182610d97565b50505b505050565b600082821c905092915050565b6000610e1e60001984600802610e00565b1980831691505092915050565b6000610e378383610e0d565b9150826002028217905092915050565b610e5082610933565b67ffffffffffffffff811115610e6957610e68610c0c565b5b610e738254610c6a565b610e7e828285610dba565b600060209050601f831160018114610eb15760008415610e9f578287015190505b610ea98582610e2b565b865550610f11565b601f198416610ebf86610c9b565b60005b82811015610ee757848901518255600182019150602085019450602081019050610ec2565b86831015610f045784890151610f00601f891682610e0d565b8355505b6001600288020188555050505b505050505050565b7f4e487b7100000000000000000000000000000000000000000000000000000000600052601160045260246000fd5b6000610f53826108c1565b91507fffffffffffffffffffffffffffffffffffffffffffffffffffffffffffffffff8203610f8557610f84610f19565b5b600182019050919050565b600082825260208201905092915050565b7f496e76616c696420496400000000000000000000000000000000000000000000600082015250565b6000610fd7600a83610f90565b9150610fe282610fa1565b602082019050919050565b6000602082019050818103600083015261100681610fca565b9050919050565b6000611018826108c1565b9150611023836108c1565b925082820390508181111561103b5761103a610f19565b5b92915050565b600061104c826108c1565b9150611057836108c1565b925082820190508082111561106f5761106e610f19565b5b92915050565b7f4e487b7100000000000000000000000000000000000000000000000000000000600052603260045260246000fdfea26469706673582212202c7419c253b7d9966c9ffa41b2049953ec6689ee912d956c01d8337149042a9864736f6c63430008180033",
  "linkReferences": {},
  "deployedLinkReferences": {}
}